:020000040800F2
:10000000400800202902000805090008BD03000877
:100010007D040008D90200083B1000080000000021
:10002000000000000000000000000000E10A0008DD
:10003000DD0200080000000095090008D10B00084F
:10004000430200084302000843020008430200087C
:10005000430200084302000843020008430200086C
:10006000430200084302000843020008430200085C
:10007000430200084302000843020008430200084C
:10008000430200084302000843020008430200083C
:10009000430200084302000843020008430200082C
:1000A000430200084302000843020008430200081C
:1000B000430200083D0C0008430200084302000808
:1000C00043020008430200084302000843020008FC
:1000D00043020008610D0008E90D00084302000812
:1000E00043020008430200084302000843020008DC
:1000F00043020008430200084302000843020008CC
:1001000043020008430200084302000843020008BB
:1001100043020008430200084302000843020008AB
:10012000430200084302000843020008430200089B
:10013000430200084302000843020008430200088B
:10014000430200084302000843020008430200087B
:10015000430200084302000843020008430200086B
:10016000430200084302000843020008430200085B
:10017000430200084302000843020008430200084B
:10018000430200084302000800F002F800F03CF8C7
:100190000AA090E8000C82448344AAF10107DA45E2
:1001A00001D100F031F8AFF2090EBAE80F0013F0F8
:1001B000010F18BFFB1A43F001031847FC110000A0
:1001C0001C120000103A24BF78C878C1FAD8520730
:1001D00024BF30C830C144BF04680C6070470000C1
:1001E0000023002400250026103A28BF78C1FBD840
:1001F000520728BF30C148BF0B6070471FB500F0E1
:10020000D5FF1FBD10B510BD00F033F81146FFF744
:10021000F5FF00F059FF00F051F803B4FFF7F2FFCB
:1002200003BC00F00CFF0000094880470948004764
:10023000FEE7FEE7FEE7FEE7FEE7FEE7FEE7FEE796
:10024000FEE7FEE704480549054A064B70470000F3
:10025000D50B00088901000840020020400800205A
:1002600040040020400400207047704770477047EA
:100270007047754600F02CF8AE46050069465346B7
:1002800020F00700854618B020B5FFF7DBFFBDE87A
:1002900020404FF000064FF000074FF000084FF0ED
:1002A000000B21F00701AC46ACE8C009ACE8C0097E
:1002B000ACE8C009ACE8C0098D46704710B50446EB
:1002C000AFF300802046BDE81040FFF7A6BF000056
:1002D00000487047E001002000BFFEE77047F0B51E
:1002E0000A4600210023002400BF3DE0012505FA55
:1002F00001F3156805EA03049C4234D105684F00F8
:100300000326BE40B543056015794E00B54006682A
:10031000354305601579012D02D01579022D16D1CE
:1003200085684F000326BE40B543856055794E0071
:10033000B540866835438560456801268E40B543E3
:100340004560456896798E40B6B235434560C568CC
:100350004F000326BE40B543C560D5794E00B54079
:10036000C6683543C560491C1029BFD3F0BDF0B540
:10037000002300244D07ED0E02FA05F3CE1000F124
:10038000200555F826504E07F70E0F26BE40B54300
:10039000CF1000F1200646F82750CE1000F12005BE
:1003A00055F8265045EA0304CE1000F1200545F823
:1003B0002640F0BD418370470183704700BFFEE7D0
:1003C00070B5284890F8680000B970BD254890F8CD
:1003D0006600801E81B22348401C00F051F804469C
:1003E000204890F86600401E1E49491C0A5C481EC1
:1003F00090F86600801E085C02EB002085B2AC42DB
:1004000027D1481E4078491E0978884220D11548D6
:10041000807811281BD2DFE800F0090A0B0C0F10BE
:10042000111415161A1A1A1A1A1A17000FE00EE0EC
:100430000DE000F0B1F80AE009E008E000F036F95C
:1004400005E004E003E002E000F036F800BF00E061
:1004500000BF0020034981F8660081F8680000BFF2
:10046000B3E7000038000020022003490870002094
:1004700081F86700704700003800002000BFFEE7E9
:1004800070B502460C46FF25FF2309E012F8010B68
:1004900080EA05010648405C80EA03050548435CA4
:1004A000201EA4F10106B4B2F0D143EA052070BDCC
:1004B000B6110008B61200082DE9F0413348017961
:1004C000C07801EB002087B230488179407901EB98
:1004D00000201FFA80F8002513E0082000EB4501FA
:1004E0002A48401C415C072000EB45022748401C7D
:1004F000805C01EB00207919254A22F81100681C64
:1005000085B24545E9DB21484078204981F86900FA
:100510000846817880F86A10C17880F86B100179FC
:1005200080F86C10417980F86D10817980F86E1038
:1005300006216930FFF7A4FF04462046E11704EBCB
:1005400011610A0A114981F86F20E11704EB11616A
:100550000912A4EB0121CAB20C4981F870204FF4B2
:1005600080710C48FFF728FF002606E00749693133
:10057000885D00F023F9701C86B2082EF6DB4FF47C
:1005800080710448FFF716FFBDE8F08138000020B5
:1005900000000020001802402DE9F0414048017998
:1005A000C07801EB002087B23D488179407901EBAA
:1005B00000201FFA80F80024394802782146641C84
:1005C0006930425403222146641C42544FEA4800D9
:1005D000C11700EB11610912A0EB0121CBB2224639
:1005E000641C2F4969318B54002621E0B9192D4A2A
:1005F00032F81100C11700EB1161C1F30723214646
:10060000621CD4B2264A69325354B919254A32F8C9
:100610001100C11700EB11610912A0EB0121CBB24F
:100620002146621CD4B21E4A69325354701CC6B2B1
:100630004645DBDB21461A486930FFF721FF0546B6
:100640002846E91705EB1161C1F307232146621C17
:10065000D4B2134A69325354E91705EB11610912F8
:10066000A5EB0121CBB22146621CD4B20C4A6932FF
:1006700053544FF480710C48FFF79EFE002606E0AD
:1006800007496931885D00F099F8701CC6B2A6422E
:10069000F6DB4FF480710448FFF78CFEBDE8F08173
:1006A0003800002000000020001802402DE9F04131
:1006B00000243F480179C07801EB002085B23C4816
:1006C0008179407901EB002086B23A4820F8156024
:1006D000374802782146641C69304254062221467C
:1006E000641C42542846E91705EB1161C1F3072346
:1006F0002246641C2E4969318B54E91705EB1161C0
:100700000912A5EB0121CBB22246641C28496931AC
:100710008B543046F11706EB1161C1F307232246D3
:10072000641C234969318B54F11706EB11610912DE
:10073000A6EB0121CBB22246641C1D4969318B54C2
:1007400021461B486930FFF79BFE07463846F917DC
:1007500007EB1161C1F307232246641C1449693178
:100760008B54F91707EB11610912A7EB0121CBB2EA
:100770002246641C0E4969318B5461010E48FFF713
:100780001BFE4FF0000809E00949693111F8080023
:1007900000F014F808F101001FFA80F8A045F3DB1F
:1007A0004FF480710448FFF705FEBDE8F0810000BA
:1007B00038000020000000200018024010B5044658
:1007C0002146074800F035FC00BF4021044800F0F6
:1007D00064FB0028F9D04021014800F049FB10BD1E
:1007E000004400407FB505460C460121022000F080
:1007F000E3F80195ADF800400020ADF80200ADF837
:10080000080069460D4800F069FA012211460B48BC
:1008100000F05AFA1D208DF80C0001208DF80D0013
:1008200002208DF80E0001208DF80F0003A800F0C3
:100830006BF80121014800F02AFA7FBD0004004056
:1008400010B504460121084600F0A6F8012148042D
:1008500000F0B2F80C202549086002200871002041
:100860008871032048710020C8712148FFF737FDC7
:10087000072202211E48FFF77AFD072203211C48A8
:10088000FFF775FD1B48046000201A498880C88066
:10089000088188810C204881174800F05BFB012209
:1008A00040F22551144800F02FFB26201349087010
:1008B0000020487088700120C870084600F024F8B5
:1008C00001210D4800F0DDFA0121402000F074F80C
:1008D0004FF48070054908600120087103204871B9
:1008E0000020C8710648FFF7FAFC10BD1000002078
:1008F00000000240080100200044004018000020D1
:10090000001802407047000070B5002100230F223C
:10091000C4781CB3174C246804F4E064C4F5E064A4
:10092000C4F30721C1F10404E3B20A4144789C40B6
:10093000E1B28478144021430C07210E0E4C057857
:100940006155047804F01F050124AC4005786D1151
:10095000AD0005F1E025C5F8004109E0047804F098
:100960001F050124AC40054D0678761145F8264058
:1009700070BD00000CED00E000E400E080E100E06C
:1009800002490143024A1160704700000000FA0565
:100990000CED00E07047000029B1064A12680243DE
:1009A000044B1A6004E0034A12688243014B1A6048
:1009B000704700003038024029B1064A12680243ED
:1009C000044B1A6004E0034A12688243014B1A6028
:1009D000704700004038024029B1064A12680243BD
:1009E000044B1A6004E0034A12688243014B1A6008
:1009F0007047000044380240F0B500210022002476
:100A0000022500260223324F3F6807F00C0121B176
:100A1000042905D0082937D105E02E4F076036E0BC
:100A20002D4F076033E02A4F3F1F3F68C7F38056C2
:100A3000274F3F1F3F6807F03F036EB1264FB7FBBC
:100A4000F3F7DFF88CC0ACF1040CDCF800C0CCF399
:100A5000881C07FB0CF40CE01E4FB7FBF3F7DFF824
:100A600070C0ACF1040CDCF800C0CCF3881C07FBB0
:100A70000CF4174F3F1F3F68C7F301477F1C7D00F1
:100A8000B4FBF5F7076002E0124F076000BF00BF3C
:100A90000F4F3F6807F0F0010909104F7A5C0768B3
:100AA000D74047600A4F3F6807F4E051890A0B4F6F
:100AB0007A5C4768D7408760054F3F6807F460411C
:100AC000490B064F7A5C4768D740C760F0BD00000D
:100AD000083802400024F40000127A0026000020AA
:100AE000704700000CB50020019000903448006869
:100AF00040F480303249086000BF3148006800F49B
:100B0000003000900198401C0190009818B901989D
:100B1000B0F5A04FF1D12A48006800F4003010B1C0
:100B20000120009001E0002000900098012846D1AB
:100B300023484030006840F080502149403108602F
:100B40002048006840F440401E4908601C480830B6
:100B500000681B49083108600846006840F40040FE
:100B600008600846006840F4A05008601648091F55
:100B70000860081F006840F08070091F086000BF0F
:100B80000F48006800F000700028F9D040F20570AE
:100B90000E4908600A480830006820F00300084940
:100BA000083108600846006840F00200086000BF95
:100BB00003480830006800F00C000828F8D10CBD8C
:100BC000003802400070004008544007003C0240DA
:100BD0007047000010B51548006840F470001349D4
:100BE00008601348006840F00100114908600020C7
:100BF0000F49083108600E4800680E4908400C494A
:100C000008600D48091D0860081F006820F4802056
:100C1000091F0860002006490C310860FFF762FFD9
:100C20004FF0006001498039086010BD88ED00E098
:100C300000380240FFFFF6FE1030002410B50121FD
:100C40000F4800F030F8C8B101210D4800F01CF841
:100C50000C4890F8670088B10A4890F86500401C7D
:100C6000084981F86500084690F86500082805DB0A
:100C7000002081F86700012081F8680010BD0000A5
:100C80000004004038000020CA430282704721B1AE
:100C9000028842F00102028004E002884FF6FE73EF
:100CA0001A400280704730B502460020002300241D
:100CB000158A05EA0103958905EA010413B10CB10F
:100CC000012000E0002030BD1AB183890B438381ED
:100CD00002E083898B4383817047000000220288F1
:100CE000184B98420ED0184B98420BD0B0F1804F61
:100CF00008D0164B984205D0154B984202D0154BA0
:100D0000984204D14FF68F731A404B881A43124B06
:100D1000984207D0114B984204D04FF6FF431A4037
:100D20000B891A4302804B68C3620B880385054B0D
:100D3000984202D0044B984201D18B7A038601235A
:100D4000838270470000014000040140000400401D
:100D500000080040000C004000100040001400405B
:100D600010B540F225511D4800F0A4F810B31B48FF
:100D700000F05AF9C4B21A48008800F40040C8B91B
:100D80001748008800F4804060B10A2C03D000208E
:100D90001349088020E01248008840F400401049C0
:100DA000088019E00D2C06D10D48008840F48040E1
:100DB0000B49088010E00A480088C0F30D0009497B
:100DC0000C5407480088401C0549088008460088E4
:100DD000C72801DD0020088010BD00000010014080
:100DE000240000201801002070B540F225511E4853
:100DF00000F060F80546012D33D11B4800F014F9CE
:100E0000C4B21A4890F86800012800D170BD174894
:100E100090F8661090F86600401C144A82F866004C
:100E2000501C44540020114681F86500084690F893
:100E30006600012815D1084640780978884204D117
:100E40000120114681F867000BE00021074890F867
:100E5000662090F86600401E044B83F86600581C1C
:100E6000815400BFD2E70000004400403800002059
:100E700001F40072B2F5007F00D100BFCA430280C6
:100E8000704721B1828942F40052828104E0828954
:100E90004DF6FF731A408281704702460020B1F57B
:100EA000007F00D100BF13880B400BB1012000E090
:100EB0000020704770B50246002400230025002062
:100EC00040F66A16B14200D100BFC1F3421501F0ED
:100ED0001F03012606FA03F3012D02D19689334040
:100EE00006E0022D02D1168A334001E0968A334093
:100EF0000C12012606FA04F41688344013B10CB122
:100F0000012000E0002070BDF0B50346002400265B
:100F10000025002040F66A17B94200D100BF1846EC
:100F2000C1F3421401F01F06012707FA06F5012C50
:100F300001D10C3004E0022C01D1103000E014305B
:100F40001AB107682F43076002E00768AF430760E4
:100F5000F0BD00002DE9FF4705460E460024A146DE
:100F600000BFA046B08900B100BF2C8A24F44054D1
:100F7000F08804432C82AC8941F20C608443B08831
:100F800031890843718908430443AC81AC8A24F455
:100F90004074B0890443AC826846FFF72DFD2048B9
:100FA000854202D01F48854202D1DDF80C9001E055
:100FB000DDF80890A88900F4004040B109EBC900B1
:100FC00000EB091031684900B0FBF1F707E009EBCD
:100FD000C90000EB091031688900B0FBF1F764200B
:100FE000B7FBF0F004012009642101FB1078A88907
:100FF00000F4004040B1322000EBC800B0FBF1F03B
:1010000000F00700044308E0322000EB08106421E0
:10101000B0FBF1F000F00F0004432C81BDE8FF8726
:10102000001001400014014001468888C0F3080008
:101030007047C1F308028280704700BFFEE700BF1F
:10104000704770B504464FF4077094FBF0F0C6B2D9
:101050004FF4077094FBF0F100FB114085B205E0FE
:101060004FF4077000F00AF8701EC6B2002EF7D1D8
:1010700015B1284600F002F870BD00000146114A83
:1010800012884A434FF0E0235A6100229A611A46BF
:10109000126942F001021A6100BF4FF0E0221069AC
:1010A00000F001021AB100F48032002AF5D04FF0AE
:1010B000E022126922F001024FF0E0231A610022BF
:1010C0009A6170471E0000204FF4A060FFF758FCA3
:1010D0004FF4E13000F014F84FF4E130FFF7B0FBCB
:1010E000092144F29F10FFF77DFBFFF7BDF905E0F2
:1010F000FFF766F94FF47A70FFF7A3FFF8E70000F7
:1011000010B588B0044601210846FFF745FC0121CF
:101110001020FFF761FC072209212248FFF727F979
:1011200007220A211F48FFF722F94FF4C0600690FA
:1011300002208DF81C008DF81D0000208DF81E0087
:1011400001208DF81F0006A91648FFF7C8F8029481
:101150000020ADF80C00ADF80E00ADF81000ADF8B1
:1011600014000C20ADF8120002A90F48FFF7F2FEA0
:1011700001210D48FFF785FE012240F225510A4862
:10118000FFF7C2FE25208DF8040003208DF805002E
:101190008DF8060001208DF8070001A8FFF7B4FBC9
:1011A00008B010BD00000240001001404FF0407038
:1011B000E1EE100A704700C1814001C0804101C0CA
:1011C000804100C1814001C0804100C1814000C117
:1011D000814001C0804101C0804100C1814000C107
:1011E000814001C0804100C1814001C0804101C0F7
:1011F000804100C1814001C0804100C1814000C1E7
:10120000814001C0804100C1814001C0804101C0D6
:10121000804100C1814000C1814001C0804101C0C6
:10122000804100C1814001C0804100C1814000C1B6
:10123000814001C0804101C0804100C1814000C1A6
:10124000814001C0804100C1814001C0804101C096
:10125000804100C1814000C1814001C0804101C086
:10126000804100C1814001C0804100C1814000C176
:10127000814001C0804100C1814001C0804101C066
:10128000804100C1814001C0804100C1814000C156
:10129000814001C0804101C0804100C1814000C146
:1012A000814001C0804100C1814001C0804101C036
:1012B000804100C1814000C0C101C30302C2C60613
:1012C00007C705C5C404CC0C0DCD0FCFCE0E0ACA7E
:1012D000CB0BC90908C8D81819D91BDBDA1A1EDECE
:1012E000DF1FDD1D1CDC14D4D515D71716D6D2127E
:1012F00013D311D1D010F03031F133F3F23236F68E
:10130000F737F53534F43CFCFD3DFF3F3EFEFA3A3D
:101310003BFB39F9F83828E8E929EB2B2AEAEE2ECD
:101320002FEF2DEDEC2CE42425E527E7E62622E23D
:10133000E323E12120E0A06061A163A3A26266A68D
:10134000A767A56564A46CACAD6DAF6F6EAEAA6AFD
:101350006BAB69A9A86878B8B979BB7B7ABABE7E4D
:101360007FBF7DBDBC7CB47475B577B7B67672B2FD
:10137000B373B17170B0509091519353529296568D
:101380005797559594549C5C5D9D5F9F9E5E5A9ABD
:101390009B5B99595898884849894B8B8A4A4E8E4D
:1013A0008F4F8D4D4C8C44848545874746868242BD
:1013B0004383418180400000D813000800000020D2
:1013C00038000000C4010008101400083800002094
:1013D00008080000E001000801000200030004000A
:1013E00005000600070008000000000000000000E3
:1013F00000000000000000000000000000000000ED
:1014000000000102030401020304060708090000AA
:040000050800018965
:00000001FF
